{
  "_format": "hh-sol-artifact-1",
  "contractName": "Straddle",
  "sourceName": "contracts/Straddle.sol",
  "abi": [
    {
      "inputs": [],
      "stateMutability": "nonpayable",
      "type": "constructor"
    },
    {
      "anonymous": false,
      "inputs": [
        {
          "indexed": true,
          "internalType": "address",
          "name": "owner",
          "type": "address"
        },
        {
          "indexed": true,
          "internalType": "address",
          "name": "spender",
          "type": "address"
        },
        {
          "indexed": false,
          "internalType": "uint256",
          "name": "value",
          "type": "uint256"
        }
      ],
      "name": "Approval",
      "type": "event"
    },
    {
      "anonymous": false,
      "inputs": [
        {
          "indexed": true,
          "internalType": "address",
          "name": "previousOwner",
          "type": "address"
        },
        {
          "indexed": true,
          "internalType": "address",
          "name": "newOwner",
          "type": "address"
        }
      ],
      "name": "OwnershipTransferred",
      "type": "event"
    },
    {
      "anonymous": false,
      "inputs": [
        {
          "indexed": true,
          "internalType": "address",
          "name": "from",
          "type": "address"
        },
        {
          "indexed": true,
          "internalType": "address",
          "name": "to",
          "type": "address"
        },
        {
          "indexed": false,
          "internalType": "uint256",
          "name": "value",
          "type": "uint256"
        }
      ],
      "name": "Transfer",
      "type": "event"
    },
    {
      "inputs": [
        {
          "internalType": "address",
          "name": "owner",
          "type": "address"
        },
        {
          "internalType": "address",
          "name": "spender",
          "type": "address"
        }
      ],
      "name": "allowance",
      "outputs": [
        {
          "internalType": "uint256",
          "name": "",
          "type": "uint256"
        }
      ],
      "stateMutability": "view",
      "type": "function"
    },
    {
      "inputs": [
        {
          "internalType": "address",
          "name": "spender",
          "type": "address"
        },
        {
          "internalType": "uint256",
          "name": "amount",
          "type": "uint256"
        }
      ],
      "name": "approve",
      "outputs": [
        {
          "internalType": "bool",
          "name": "",
          "type": "bool"
        }
      ],
      "stateMutability": "nonpayable",
      "type": "function"
    },
    {
      "inputs": [
        {
          "internalType": "address",
          "name": "account",
          "type": "address"
        }
      ],
      "name": "balanceOf",
      "outputs": [
        {
          "internalType": "uint256",
          "name": "",
          "type": "uint256"
        }
      ],
      "stateMutability": "view",
      "type": "function"
    },
    {
      "inputs": [
        {
          "internalType": "address",
          "name": "user",
          "type": "address"
        }
      ],
      "name": "calculateRewards",
      "outputs": [
        {
          "internalType": "uint256",
          "name": "",
          "type": "uint256"
        }
      ],
      "stateMutability": "view",
      "type": "function"
    },
    {
      "inputs": [],
      "name": "claimRewards",
      "outputs": [],
      "stateMutability": "nonpayable",
      "type": "function"
    },
    {
      "inputs": [
        {
          "internalType": "uint256",
          "name": "amount",
          "type": "uint256"
        },
        {
          "internalType": "uint256",
          "name": "tier",
          "type": "uint256"
        }
      ],
      "name": "createLock",
      "outputs": [],
      "stateMutability": "nonpayable",
      "type": "function"
    },
    {
      "inputs": [],
      "name": "decimals",
      "outputs": [
        {
          "internalType": "uint8",
          "name": "",
          "type": "uint8"
        }
      ],
      "stateMutability": "view",
      "type": "function"
    },
    {
      "inputs": [
        {
          "internalType": "address",
          "name": "spender",
          "type": "address"
        },
        {
          "internalType": "uint256",
          "name": "subtractedValue",
          "type": "uint256"
        }
      ],
      "name": "decreaseAllowance",
      "outputs": [
        {
          "internalType": "bool",
          "name": "",
          "type": "bool"
        }
      ],
      "stateMutability": "nonpayable",
      "type": "function"
    },
    {
      "inputs": [
        {
          "internalType": "uint256",
          "name": "amount",
          "type": "uint256"
        },
        {
          "internalType": "uint256",
          "name": "lock_tier",
          "type": "uint256"
        }
      ],
      "name": "deposit",
      "outputs": [],
      "stateMutability": "nonpayable",
      "type": "function"
    },
    {
      "inputs": [
        {
          "internalType": "uint256",
          "name": "usdcAmount",
          "type": "uint256"
        }
      ],
      "name": "depositRewards",
      "outputs": [],
      "stateMutability": "nonpayable",
      "type": "function"
    },
    {
      "inputs": [],
      "name": "distributeRewards",
      "outputs": [],
      "stateMutability": "nonpayable",
      "type": "function"
    },
    {
      "inputs": [],
      "name": "getDistributions",
      "outputs": [
        {
          "components": [
            {
              "internalType": "uint256",
              "name": "time",
              "type": "uint256"
            },
            {
              "internalType": "uint256",
              "name": "rewardAmount",
              "type": "uint256"
            },
            {
              "internalType": "uint256",
              "name": "stakedTotal",
              "type": "uint256"
            }
          ],
          "internalType": "struct Straddle.Distribution[]",
          "name": "",
          "type": "tuple[]"
        }
      ],
      "stateMutability": "view",
      "type": "function"
    },
    {
      "inputs": [
        {
          "internalType": "address",
          "name": "user",
          "type": "address"
        }
      ],
      "name": "getUserDepositBalance",
      "outputs": [
        {
          "internalType": "uint256",
          "name": "",
          "type": "uint256"
        }
      ],
      "stateMutability": "view",
      "type": "function"
    },
    {
      "inputs": [
        {
          "internalType": "address",
          "name": "user",
          "type": "address"
        }
      ],
      "name": "getUserLockedBalance",
      "outputs": [
        {
          "internalType": "uint256",
          "name": "",
          "type": "uint256"
        }
      ],
      "stateMutability": "view",
      "type": "function"
    },
    {
      "inputs": [
        {
          "internalType": "address",
          "name": "user",
          "type": "address"
        }
      ],
      "name": "getUserLocks",
      "outputs": [
        {
          "components": [
            {
              "internalType": "uint256",
              "name": "startTime",
              "type": "uint256"
            },
            {
              "internalType": "uint256",
              "name": "endTime",
              "type": "uint256"
            },
            {
              "internalType": "uint256",
              "name": "stakedAmount",
              "type": "uint256"
            },
            {
              "internalType": "uint256",
              "name": "tier",
              "type": "uint256"
            }
          ],
          "internalType": "struct Straddle.Lock[]",
          "name": "",
          "type": "tuple[]"
        }
      ],
      "stateMutability": "view",
      "type": "function"
    },
    {
      "inputs": [
        {
          "internalType": "address",
          "name": "spender",
          "type": "address"
        },
        {
          "internalType": "uint256",
          "name": "addedValue",
          "type": "uint256"
        }
      ],
      "name": "increaseAllowance",
      "outputs": [
        {
          "internalType": "bool",
          "name": "",
          "type": "bool"
        }
      ],
      "stateMutability": "nonpayable",
      "type": "function"
    },
    {
      "inputs": [],
      "name": "name",
      "outputs": [
        {
          "internalType": "string",
          "name": "",
          "type": "string"
        }
      ],
      "stateMutability": "view",
      "type": "function"
    },
    {
      "inputs": [],
      "name": "owner",
      "outputs": [
        {
          "internalType": "address",
          "name": "",
          "type": "address"
        }
      ],
      "stateMutability": "view",
      "type": "function"
    },
    {
      "inputs": [],
      "name": "renounceOwnership",
      "outputs": [],
      "stateMutability": "nonpayable",
      "type": "function"
    },
    {
      "inputs": [],
      "name": "stagingPoolSizeUsdc",
      "outputs": [
        {
          "internalType": "uint256",
          "name": "",
          "type": "uint256"
        }
      ],
      "stateMutability": "view",
      "type": "function"
    },
    {
      "inputs": [],
      "name": "symbol",
      "outputs": [
        {
          "internalType": "string",
          "name": "",
          "type": "string"
        }
      ],
      "stateMutability": "view",
      "type": "function"
    },
    {
      "inputs": [],
      "name": "totalSupply",
      "outputs": [
        {
          "internalType": "uint256",
          "name": "",
          "type": "uint256"
        }
      ],
      "stateMutability": "view",
      "type": "function"
    },
    {
      "inputs": [
        {
          "internalType": "address",
          "name": "to",
          "type": "address"
        },
        {
          "internalType": "uint256",
          "name": "amount",
          "type": "uint256"
        }
      ],
      "name": "transfer",
      "outputs": [
        {
          "internalType": "bool",
          "name": "",
          "type": "bool"
        }
      ],
      "stateMutability": "nonpayable",
      "type": "function"
    },
    {
      "inputs": [
        {
          "internalType": "address",
          "name": "from",
          "type": "address"
        },
        {
          "internalType": "address",
          "name": "to",
          "type": "address"
        },
        {
          "internalType": "uint256",
          "name": "amount",
          "type": "uint256"
        }
      ],
      "name": "transferFrom",
      "outputs": [
        {
          "internalType": "bool",
          "name": "",
          "type": "bool"
        }
      ],
      "stateMutability": "nonpayable",
      "type": "function"
    },
    {
      "inputs": [
        {
          "internalType": "address",
          "name": "newOwner",
          "type": "address"
        }
      ],
      "name": "transferOwnership",
      "outputs": [],
      "stateMutability": "nonpayable",
      "type": "function"
    },
    {
      "inputs": [
        {
          "internalType": "address",
          "name": "",
          "type": "address"
        }
      ],
      "name": "userAccounts",
      "outputs": [
        {
          "internalType": "uint256",
          "name": "depositBalance",
          "type": "uint256"
        },
        {
          "internalType": "uint256",
          "name": "rewardsClaimed",
          "type": "uint256"
        }
      ],
      "stateMutability": "view",
      "type": "function"
    },
    {
      "inputs": [
        {
          "internalType": "address",
          "name": "",
          "type": "address"
        },
        {
          "internalType": "uint256",
          "name": "",
          "type": "uint256"
        }
      ],
      "name": "userLocks",
      "outputs": [
        {
          "internalType": "uint256",
          "name": "startTime",
          "type": "uint256"
        },
        {
          "internalType": "uint256",
          "name": "endTime",
          "type": "uint256"
        },
        {
          "internalType": "uint256",
          "name": "stakedAmount",
          "type": "uint256"
        },
        {
          "internalType": "uint256",
          "name": "tier",
          "type": "uint256"
        }
      ],
      "stateMutability": "view",
      "type": "function"
    },
    {
      "inputs": [
        {
          "internalType": "uint256",
          "name": "amount",
          "type": "uint256"
        }
      ],
      "name": "withdraw",
      "outputs": [],
      "stateMutability": "nonpayable",
      "type": "function"
    },
    {
      "inputs": [
        {
          "internalType": "uint256",
          "name": "usdcAmount",
          "type": "uint256"
        }
      ],
      "name": "withdrawSurplus",
      "outputs": [],
      "stateMutability": "nonpayable",
      "type": "function"
    }
  ],
  "bytecode": "0x60806040523480156200001157600080fd5b506040518060400160405280600881526020017f5374726164646c650000000000000000000000000000000000000000000000008152506040518060400160405280600581526020017f53545241440000000000000000000000000000000000000000000000000000008152506200009e62000092620000ed60201b60201c565b620000f560201b60201c565b8160049080519060200190620000b69291906200033d565b508060059080519060200190620000cf9291906200033d565b505050620000e73362989680620001b960201b60201c565b62000599565b600033905090565b60008060009054906101000a900473ffffffffffffffffffffffffffffffffffffffff169050816000806101000a81548173ffffffffffffffffffffffffffffffffffffffff021916908373ffffffffffffffffffffffffffffffffffffffff1602179055508173ffffffffffffffffffffffffffffffffffffffff168173ffffffffffffffffffffffffffffffffffffffff167f8be0079c531659141344cd1fd0a4f28419497f9722a3daafe3b4186f6b6457e060405160405180910390a35050565b600073ffffffffffffffffffffffffffffffffffffffff168273ffffffffffffffffffffffffffffffffffffffff1614156200022c576040517f08c379a0000000000000000000000000000000000000000000000000000000008152600401620002239062000425565b60405180910390fd5b62000240600083836200033360201b60201c565b806003600082825462000254919062000475565b9250508190555080600160008473ffffffffffffffffffffffffffffffffffffffff1673ffffffffffffffffffffffffffffffffffffffff1681526020019081526020016000206000828254620002ac919062000475565b925050819055508173ffffffffffffffffffffffffffffffffffffffff16600073ffffffffffffffffffffffffffffffffffffffff167fddf252ad1be2c89b69c2b068fc378daa952ba7f163c4a11628f55a4df523b3ef8360405162000313919062000447565b60405180910390a36200032f600083836200033860201b60201c565b5050565b505050565b505050565b8280546200034b90620004dc565b90600052602060002090601f0160209004810192826200036f5760008555620003bb565b82601f106200038a57805160ff1916838001178555620003bb565b82800160010185558215620003bb579182015b82811115620003ba5782518255916020019190600101906200039d565b5b509050620003ca9190620003ce565b5090565b5b80821115620003e9576000816000905550600101620003cf565b5090565b6000620003fc601f8362000464565b9150620004098262000570565b602082019050919050565b6200041f81620004d2565b82525050565b600060208201905081810360008301526200044081620003ed565b9050919050565b60006020820190506200045e600083018462000414565b92915050565b600082825260208201905092915050565b60006200048282620004d2565b91506200048f83620004d2565b9250827fffffffffffffffffffffffffffffffffffffffffffffffffffffffffffffffff03821115620004c757620004c662000512565b5b828201905092915050565b6000819050919050565b60006002820490506001821680620004f557607f821691505b602082108114156200050c576200050b62000541565b5b50919050565b7f4e487b7100000000000000000000000000000000000000000000000000000000600052601160045260246000fd5b7f4e487b7100000000000000000000000000000000000000000000000000000000600052602260045260246000fd5b7f45524332303a206d696e7420746f20746865207a65726f206164647265737300600082015250565b61306280620005a96000396000f3fe608060405234801561001057600080fd5b50600436106101ce5760003560e01c80636f4a2cd011610104578063a9059cbb116100a2578063d4efe6f611610071578063d4efe6f614610559578063dd62ed3e14610577578063e2bbb158146105a7578063f2fde38b146105c3576101ce565b8063a9059cbb146104be578063aa33fedb146104ee578063b0d1818c14610521578063b52c05fe1461053d576101ce565b80638bdf67f2116100de5780638bdf67f2146104365780638da5cb5b1461045257806395d89b4114610470578063a457c2d71461048e576101ce565b80636f4a2cd0146103f257806370a08231146103fc578063715018a61461042c576101ce565b80632e1a7d4d11610171578063395093511161014b57806339509351146103315780633c525e8d146103615780635251d91c1461039157806364ab8675146103c2576101ce565b80632e1a7d4d146102ed578063313ce56714610309578063372500ab14610327576101ce565b8063095ea7b3116101ad578063095ea7b31461023f57806318160ddd1461026f57806323a35de91461028d57806323b872dd146102bd576101ce565b8062050bc1146101d357806302aa63181461020357806306fdde0314610221575b600080fd5b6101ed60048036038101906101e89190611fae565b6105df565b6040516101fa919061281c565b60405180910390f35b61020b6106fb565b60405161021891906125bb565b60405180910390f35b610229610778565b604051610236919061261a565b60405180910390f35b61025960048036038101906102549190612062565b61080a565b60405161026691906125ff565b60405180910390f35b61027761082d565b604051610284919061281c565b60405180910390f35b6102a760048036038101906102a29190611fae565b610837565b6040516102b491906125dd565b60405180910390f35b6102d760048036038101906102d29190612013565b6108fd565b6040516102e491906125ff565b60405180910390f35b610307600480360381019061030291906120c7565b61092c565b005b610311610a89565b60405161031e91906128a5565b60405180910390f35b61032f610a92565b005b61034b60048036038101906103469190612062565b610be0565b60405161035891906125ff565b60405180910390f35b61037b60048036038101906103769190611fae565b610c8a565b604051610388919061281c565b60405180910390f35b6103ab60048036038101906103a69190611fae565b610cd6565b6040516103b9929190612837565b60405180910390f35b6103dc60048036038101906103d79190611fae565b610cfa565b6040516103e9919061281c565b60405180910390f35b6103fa610ff4565b005b61041660048036038101906104119190611fae565b6110f0565b604051610423919061281c565b60405180910390f35b610434611139565b005b610450600480360381019061044b91906120c7565b6111c1565b005b61045a611281565b6040516104679190612540565b60405180910390f35b6104786112aa565b604051610485919061261a565b60405180910390f35b6104a860048036038101906104a39190612062565b61133c565b6040516104b591906125ff565b60405180910390f35b6104d860048036038101906104d39190612062565b611426565b6040516104e591906125ff565b60405180910390f35b61050860048036038101906105039190612062565b611449565b6040516105189493929190612860565b60405180910390f35b61053b600480360381019061053691906120c7565b611496565b005b610557600480360381019061055291906120f0565b6115b7565b005b6105616115c5565b60405161056e919061281c565b60405180910390f35b610591600480360381019061058c9190611fd7565b6115cb565b60405161059e919061281c565b60405180910390f35b6105c160048036038101906105bc91906120f0565b611652565b005b6105dd60048036038101906105d89190611fae565b61171d565b005b6000806000905060005b600860008573ffffffffffffffffffffffffffffffffffffffff1673ffffffffffffffffffffffffffffffffffffffff168152602001908152602001600020805490508110156106f1576000600860008673ffffffffffffffffffffffffffffffffffffffff1673ffffffffffffffffffffffffffffffffffffffff16815260200190815260200160002082815481106106ac577f4e487b7100000000000000000000000000000000000000000000000000000000600052603260045260246000fd5b906000526020600020906004020190506106c581611815565b156106dd578060020154836106da919061294e565b92505b5080806106e990612b1d565b9150506105e9565b5080915050919050565b60606007805480602002602001604051908101604052809291908181526020016000905b8282101561076f578382906000526020600020906003020160405180606001604052908160008201548152602001600182015481526020016002820154815250508152602001906001019061071f565b50505050905090565b60606004805461078790612aeb565b80601f01602080910402602001604051908101604052809291908181526020018280546107b390612aeb565b80156108005780601f106107d557610100808354040283529160200191610800565b820191906000526020600020905b8154815290600101906020018083116107e357829003601f168201915b5050505050905090565b600080610815611846565b905061082281858561184e565b600191505092915050565b6000600354905090565b6060600860008373ffffffffffffffffffffffffffffffffffffffff1673ffffffffffffffffffffffffffffffffffffffff168152602001908152602001600020805480602002602001604051908101604052809291908181526020016000905b828210156108f2578382906000526020600020906004020160405180608001604052908160008201548152602001600182015481526020016002820154815260200160038201548152505081526020019060010190610898565b505050509050919050565b600080610908611846565b9050610915858285611a19565b610920858585611aa5565b60019150509392505050565b600061093733610c8a565b90506000610944336105df565b905060008211610989576040517f08c379a0000000000000000000000000000000000000000000000000000000008152600401610980906126fc565b60405180910390fd5b600081836109979190612a2f565b9050600081116109dc576040517f08c379a00000000000000000000000000000000000000000000000000000000081526004016109d39061265c565b60405180910390fd5b83811015610a1f576040517f08c379a0000000000000000000000000000000000000000000000000000000008152600401610a169061275c565b60405180910390fd5b83600960003373ffffffffffffffffffffffffffffffffffffffff1673ffffffffffffffffffffffffffffffffffffffff1681526020019081526020016000206000016000828254610a719190612a2f565b92505081905550610a83303386611aa5565b50505050565b60006012905090565b6000610a9d33610cfa565b905060008111610ae2576040517f08c379a0000000000000000000000000000000000000000000000000000000008152600401610ad99061273c565b60405180910390fd5b80600960003373ffffffffffffffffffffffffffffffffffffffff1673ffffffffffffffffffffffffffffffffffffffff1681526020019081526020016000206001016000828254610b34919061294e565b9250508190555073a0b86991c6218b36c1d19d4a2e9eb0ce3606eb4873ffffffffffffffffffffffffffffffffffffffff1663a9059cbb33836040518363ffffffff1660e01b8152600401610b8a929190612592565b602060405180830381600087803b158015610ba457600080fd5b505af1158015610bb8573d6000803e3d6000fd5b505050506040513d601f19601f82011682018060405250810190610bdc919061209e565b5050565b600080610beb611846565b9050610c7f818585600260008673ffffffffffffffffffffffffffffffffffffffff1673ffffffffffffffffffffffffffffffffffffffff16815260200190815260200160002060008973ffffffffffffffffffffffffffffffffffffffff1673ffffffffffffffffffffffffffffffffffffffff16815260200190815260200160002054610c7a919061294e565b61184e565b600191505092915050565b6000600960008373ffffffffffffffffffffffffffffffffffffffff1673ffffffffffffffffffffffffffffffffffffffff168152602001908152602001600020600001549050919050565b60096020528060005260406000206000915090508060000154908060010154905082565b6000806000905060005b600860008573ffffffffffffffffffffffffffffffffffffffff1673ffffffffffffffffffffffffffffffffffffffff16815260200190815260200160002080549050811015610f9d576000600860008673ffffffffffffffffffffffffffffffffffffffff1673ffffffffffffffffffffffffffffffffffffffff1681526020019081526020016000208281548110610dc7577f4e487b7100000000000000000000000000000000000000000000000000000000600052603260045260246000fd5b906000526020600020906004020160405180608001604052908160008201548152602001600182015481526020016002820154815260200160038201548152505090506000805b600780549050811015610efa57600060078281548110610e57577f4e487b7100000000000000000000000000000000000000000000000000000000600052603260045260246000fd5b9060005260206000209060030201604051806060016040529081600082015481526020016001820154815260200160028201548152505090508360000151816000015110158015610eb057508360200151816000015111155b80610ebf575060008460600151145b15610ee65780604001518160200151610ed891906129a4565b83610ee3919061294e565b92505b508080610ef290612b1d565b915050610e0e565b506000818360400151610f0d91906129d5565b905060008084606001511415610f4b57610f446005610f36600a85611d2990919063ffffffff16565b611d3f90919063ffffffff16565b9050610f78565b610f758460600151610f67600a85611d2990919063ffffffff16565b611d3f90919063ffffffff16565b90505b8086610f84919061294e565b9550505050508080610f9590612b1d565b915050610d04565b50600960008473ffffffffffffffffffffffffffffffffffffffff1673ffffffffffffffffffffffffffffffffffffffff1681526020019081526020016000206001015481610fec9190612a2f565b915050919050565b610ffc611846565b73ffffffffffffffffffffffffffffffffffffffff1661101a611281565b73ffffffffffffffffffffffffffffffffffffffff1614611070576040517f08c379a00000000000000000000000000000000000000000000000000000000081526004016110679061279c565b60405180910390fd5b600061107b306110f0565b90506007604051806060016040528042815260200160065481526020018381525090806001815401808255809150506001900390600052602060002090600302016000909190919091506000820151816000015560208201518160010155604082015181600201555050600060068190555050565b6000600160008373ffffffffffffffffffffffffffffffffffffffff1673ffffffffffffffffffffffffffffffffffffffff168152602001908152602001600020549050919050565b611141611846565b73ffffffffffffffffffffffffffffffffffffffff1661115f611281565b73ffffffffffffffffffffffffffffffffffffffff16146111b5576040517f08c379a00000000000000000000000000000000000000000000000000000000081526004016111ac9061279c565b60405180910390fd5b6111bf6000611d55565b565b73a0b86991c6218b36c1d19d4a2e9eb0ce3606eb4873ffffffffffffffffffffffffffffffffffffffff166323b872dd3330846040518463ffffffff1660e01b81526004016112129392919061255b565b602060405180830381600087803b15801561122c57600080fd5b505af1158015611240573d6000803e3d6000fd5b505050506040513d601f19601f82011682018060405250810190611264919061209e565b508060066000828254611277919061294e565b9250508190555050565b60008060009054906101000a900473ffffffffffffffffffffffffffffffffffffffff16905090565b6060600580546112b990612aeb565b80601f01602080910402602001604051908101604052809291908181526020018280546112e590612aeb565b80156113325780601f1061130757610100808354040283529160200191611332565b820191906000526020600020905b81548152906001019060200180831161131557829003601f168201915b5050505050905090565b600080611347611846565b90506000600260008373ffffffffffffffffffffffffffffffffffffffff1673ffffffffffffffffffffffffffffffffffffffff16815260200190815260200160002060008673ffffffffffffffffffffffffffffffffffffffff1673ffffffffffffffffffffffffffffffffffffffff1681526020019081526020016000205490508381101561140d576040517f08c379a0000000000000000000000000000000000000000000000000000000008152600401611404906127fc565b60405180910390fd5b61141a828686840361184e565b60019250505092915050565b600080611431611846565b905061143e818585611aa5565b600191505092915050565b6008602052816000526040600020818154811061146557600080fd5b9060005260206000209060040201600091509150508060000154908060010154908060020154908060030154905084565b61149e611846565b73ffffffffffffffffffffffffffffffffffffffff166114bc611281565b73ffffffffffffffffffffffffffffffffffffffff1614611512576040517f08c379a00000000000000000000000000000000000000000000000000000000081526004016115099061279c565b60405180910390fd5b73a0b86991c6218b36c1d19d4a2e9eb0ce3606eb4873ffffffffffffffffffffffffffffffffffffffff1663a9059cbb33836040518363ffffffff1660e01b8152600401611561929190612592565b602060405180830381600087803b15801561157b57600080fd5b505af115801561158f573d6000803e3d6000fd5b505050506040513d601f19601f820116820180604052508101906115b3919061209e565b5050565b6115c18282611e19565b5050565b60065481565b6000600260008473ffffffffffffffffffffffffffffffffffffffff1673ffffffffffffffffffffffffffffffffffffffff16815260200190815260200160002060008373ffffffffffffffffffffffffffffffffffffffff1673ffffffffffffffffffffffffffffffffffffffff16815260200190815260200160002054905092915050565b6004811115611696576040517f08c379a000000000000000000000000000000000000000000000000000000000815260040161168d9061267c565b60405180910390fd5b6116a1333084611aa5565b81600960003373ffffffffffffffffffffffffffffffffffffffff1673ffffffffffffffffffffffffffffffffffffffff16815260200190815260200160002060000160008282546116f3919061294e565b92505081905550611705826000611e19565b6000811115611719576117188282611e19565b5b5050565b611725611846565b73ffffffffffffffffffffffffffffffffffffffff16611743611281565b73ffffffffffffffffffffffffffffffffffffffff1614611799576040517f08c379a00000000000000000000000000000000000000000000000000000000081526004016117909061279c565b60405180910390fd5b600073ffffffffffffffffffffffffffffffffffffffff168173ffffffffffffffffffffffffffffffffffffffff161415611809576040517f08c379a00000000000000000000000000000000000000000000000000000000081526004016118009061269c565b60405180910390fd5b61181281611d55565b50565b600081600101544210801561182e575060008260030154115b1561183c5760019050611841565b600090505b919050565b600033905090565b600073ffffffffffffffffffffffffffffffffffffffff168373ffffffffffffffffffffffffffffffffffffffff1614156118be576040517f08c379a00000000000000000000000000000000000000000000000000000000081526004016118b5906127dc565b60405180910390fd5b600073ffffffffffffffffffffffffffffffffffffffff168273ffffffffffffffffffffffffffffffffffffffff16141561192e576040517f08c379a0000000000000000000000000000000000000000000000000000000008152600401611925906126bc565b60405180910390fd5b80600260008573ffffffffffffffffffffffffffffffffffffffff1673ffffffffffffffffffffffffffffffffffffffff16815260200190815260200160002060008473ffffffffffffffffffffffffffffffffffffffff1673ffffffffffffffffffffffffffffffffffffffff168152602001908152602001600020819055508173ffffffffffffffffffffffffffffffffffffffff168373ffffffffffffffffffffffffffffffffffffffff167f8c5be1e5ebec7d5bd14f71427d1e84f3dd0314c0f7b2291e5b200ac8c7c3b92583604051611a0c919061281c565b60405180910390a3505050565b6000611a2584846115cb565b90507fffffffffffffffffffffffffffffffffffffffffffffffffffffffffffffffff8114611a9f5781811015611a91576040517f08c379a0000000000000000000000000000000000000000000000000000000008152600401611a88906126dc565b60405180910390fd5b611a9e848484840361184e565b5b50505050565b600073ffffffffffffffffffffffffffffffffffffffff168373ffffffffffffffffffffffffffffffffffffffff161415611b15576040517f08c379a0000000000000000000000000000000000000000000000000000000008152600401611b0c906127bc565b60405180910390fd5b600073ffffffffffffffffffffffffffffffffffffffff168273ffffffffffffffffffffffffffffffffffffffff161415611b85576040517f08c379a0000000000000000000000000000000000000000000000000000000008152600401611b7c9061263c565b60405180910390fd5b611b90838383611f65565b6000600160008573ffffffffffffffffffffffffffffffffffffffff1673ffffffffffffffffffffffffffffffffffffffff16815260200190815260200160002054905081811015611c17576040517f08c379a0000000000000000000000000000000000000000000000000000000008152600401611c0e9061271c565b60405180910390fd5b818103600160008673ffffffffffffffffffffffffffffffffffffffff1673ffffffffffffffffffffffffffffffffffffffff1681526020019081526020016000208190555081600160008573ffffffffffffffffffffffffffffffffffffffff1673ffffffffffffffffffffffffffffffffffffffff1681526020019081526020016000206000828254611cac919061294e565b925050819055508273ffffffffffffffffffffffffffffffffffffffff168473ffffffffffffffffffffffffffffffffffffffff167fddf252ad1be2c89b69c2b068fc378daa952ba7f163c4a11628f55a4df523b3ef84604051611d10919061281c565b60405180910390a3611d23848484611f6a565b50505050565b60008183611d3791906129a4565b905092915050565b60008183611d4d91906129d5565b905092915050565b60008060009054906101000a900473ffffffffffffffffffffffffffffffffffffffff169050816000806101000a81548173ffffffffffffffffffffffffffffffffffffffff021916908373ffffffffffffffffffffffffffffffffffffffff1602179055508173ffffffffffffffffffffffffffffffffffffffff168173ffffffffffffffffffffffffffffffffffffffff167f8be0079c531659141344cd1fd0a4f28419497f9722a3daafe3b4186f6b6457e060405160405180910390a35050565b6000611e2433610c8a565b90506000611e31336105df565b905060008183611e419190612a2f565b905080851115611e86576040517f08c379a0000000000000000000000000000000000000000000000000000000008152600401611e7d9061277c565b60405180910390fd5b6000626ebe0085611e9791906129d5565b42611ea2919061294e565b905060006040518060800160405280428152602001838152602001888152602001878152509050600860003373ffffffffffffffffffffffffffffffffffffffff1673ffffffffffffffffffffffffffffffffffffffff16815260200190815260200160002081908060018154018082558091505060019003906000526020600020906004020160009091909190915060008201518160000155602082015181600101556040820151816002015560608201518160030155505050505050505050565b505050565b505050565b600081359050611f7e81612fe7565b92915050565b600081519050611f9381612ffe565b92915050565b600081359050611fa881613015565b92915050565b600060208284031215611fc057600080fd5b6000611fce84828501611f6f565b91505092915050565b60008060408385031215611fea57600080fd5b6000611ff885828601611f6f565b925050602061200985828601611f6f565b9150509250929050565b60008060006060848603121561202857600080fd5b600061203686828701611f6f565b935050602061204786828701611f6f565b925050604061205886828701611f99565b9150509250925092565b6000806040838503121561207557600080fd5b600061208385828601611f6f565b925050602061209485828601611f99565b9150509250929050565b6000602082840312156120b057600080fd5b60006120be84828501611f84565b91505092915050565b6000602082840312156120d957600080fd5b60006120e784828501611f99565b91505092915050565b6000806040838503121561210357600080fd5b600061211185828601611f99565b925050602061212285828601611f99565b9150509250929050565b6000612138838361247c565b60608301905092915050565b600061215083836124be565b60808301905092915050565b61216581612a63565b82525050565b6000612176826128e0565b612180818561291b565b935061218b836128c0565b8060005b838110156121bc5781516121a3888261212c565b97506121ae83612901565b92505060018101905061218f565b5085935050505092915050565b60006121d4826128eb565b6121de818561292c565b93506121e9836128d0565b8060005b8381101561221a5781516122018882612144565b975061220c8361290e565b9250506001810190506121ed565b5085935050505092915050565b61223081612a75565b82525050565b6000612241826128f6565b61224b818561293d565b935061225b818560208601612ab8565b61226481612bf3565b840191505092915050565b600061227c60238361293d565b915061228782612c04565b604082019050919050565b600061229f60278361293d565b91506122aa82612c53565b604082019050919050565b60006122c260128361293d565b91506122cd82612ca2565b602082019050919050565b60006122e560268361293d565b91506122f082612ccb565b604082019050919050565b600061230860228361293d565b915061231382612d1a565b604082019050919050565b600061232b601d8361293d565b915061233682612d69565b602082019050919050565b600061234e601e8361293d565b915061235982612d92565b602082019050919050565b600061237160268361293d565b915061237c82612dbb565b604082019050919050565b600061239460138361293d565b915061239f82612e0a565b602082019050919050565b60006123b7602a8361293d565b91506123c282612e33565b604082019050919050565b60006123da603c8361293d565b91506123e582612e82565b604082019050919050565b60006123fd60208361293d565b915061240882612ed1565b602082019050919050565b600061242060258361293d565b915061242b82612efa565b604082019050919050565b600061244360248361293d565b915061244e82612f49565b604082019050919050565b600061246660258361293d565b915061247182612f98565b604082019050919050565b6060820160008201516124926000850182612513565b5060208201516124a56020850182612513565b5060408201516124b86040850182612513565b50505050565b6080820160008201516124d46000850182612513565b5060208201516124e76020850182612513565b5060408201516124fa6040850182612513565b50606082015161250d6060850182612513565b50505050565b61251c81612aa1565b82525050565b61252b81612aa1565b82525050565b61253a81612aab565b82525050565b6000602082019050612555600083018461215c565b92915050565b6000606082019050612570600083018661215c565b61257d602083018561215c565b61258a6040830184612522565b949350505050565b60006040820190506125a7600083018561215c565b6125b46020830184612522565b9392505050565b600060208201905081810360008301526125d5818461216b565b905092915050565b600060208201905081810360008301526125f781846121c9565b905092915050565b60006020820190506126146000830184612227565b92915050565b600060208201905081810360008301526126348184612236565b905092915050565b600060208201905081810360008301526126558161226f565b9050919050565b6000602082019050818103600083015261267581612292565b9050919050565b60006020820190508181036000830152612695816122b5565b9050919050565b600060208201905081810360008301526126b5816122d8565b9050919050565b600060208201905081810360008301526126d5816122fb565b9050919050565b600060208201905081810360008301526126f58161231e565b9050919050565b6000602082019050818103600083015261271581612341565b9050919050565b6000602082019050818103600083015261273581612364565b9050919050565b6000602082019050818103600083015261275581612387565b9050919050565b60006020820190508181036000830152612775816123aa565b9050919050565b60006020820190508181036000830152612795816123cd565b9050919050565b600060208201905081810360008301526127b5816123f0565b9050919050565b600060208201905081810360008301526127d581612413565b9050919050565b600060208201905081810360008301526127f581612436565b9050919050565b6000602082019050818103600083015261281581612459565b9050919050565b60006020820190506128316000830184612522565b92915050565b600060408201905061284c6000830185612522565b6128596020830184612522565b9392505050565b60006080820190506128756000830187612522565b6128826020830186612522565b61288f6040830185612522565b61289c6060830184612522565b95945050505050565b60006020820190506128ba6000830184612531565b92915050565b6000819050602082019050919050565b6000819050602082019050919050565b600081519050919050565b600081519050919050565b600081519050919050565b6000602082019050919050565b6000602082019050919050565b600082825260208201905092915050565b600082825260208201905092915050565b600082825260208201905092915050565b600061295982612aa1565b915061296483612aa1565b9250827fffffffffffffffffffffffffffffffffffffffffffffffffffffffffffffffff0382111561299957612998612b66565b5b828201905092915050565b60006129af82612aa1565b91506129ba83612aa1565b9250826129ca576129c9612b95565b5b828204905092915050565b60006129e082612aa1565b91506129eb83612aa1565b9250817fffffffffffffffffffffffffffffffffffffffffffffffffffffffffffffffff0483118215151615612a2457612a23612b66565b5b828202905092915050565b6000612a3a82612aa1565b9150612a4583612aa1565b925082821015612a5857612a57612b66565b5b828203905092915050565b6000612a6e82612a81565b9050919050565b60008115159050919050565b600073ffffffffffffffffffffffffffffffffffffffff82169050919050565b6000819050919050565b600060ff82169050919050565b60005b83811015612ad6578082015181840152602081019050612abb565b83811115612ae5576000848401525b50505050565b60006002820490506001821680612b0357607f821691505b60208210811415612b1757612b16612bc4565b5b50919050565b6000612b2882612aa1565b91507fffffffffffffffffffffffffffffffffffffffffffffffffffffffffffffffff821415612b5b57612b5a612b66565b5b600182019050919050565b7f4e487b7100000000000000000000000000000000000000000000000000000000600052601160045260246000fd5b7f4e487b7100000000000000000000000000000000000000000000000000000000600052601260045260246000fd5b7f4e487b7100000000000000000000000000000000000000000000000000000000600052602260045260246000fd5b6000601f19601f8301169050919050565b7f45524332303a207472616e7366657220746f20746865207a65726f206164647260008201527f6573730000000000000000000000000000000000000000000000000000000000602082015250565b7f4e6f20756e6c6f636b656420535452414420617661696c61626c6520746f207760008201527f6974686472617700000000000000000000000000000000000000000000000000602082015250565b7f496e76616c6964204c6f636b20546965722e0000000000000000000000000000600082015250565b7f4f776e61626c653a206e6577206f776e657220697320746865207a65726f206160008201527f6464726573730000000000000000000000000000000000000000000000000000602082015250565b7f45524332303a20617070726f766520746f20746865207a65726f20616464726560008201527f7373000000000000000000000000000000000000000000000000000000000000602082015250565b7f45524332303a20696e73756666696369656e7420616c6c6f77616e6365000000600082015250565b7f4e6f20535452414420617661696c61626c6520746f2077697468647261770000600082015250565b7f45524332303a207472616e7366657220616d6f756e742065786365656473206260008201527f616c616e63650000000000000000000000000000000000000000000000000000602082015250565b7f4e6f207265776172647320746f20636c61696d00000000000000000000000000600082015250565b7f416d6f756e7420746f207769746864726177206578636565647320617661696c60008201527f61626c6520535452414400000000000000000000000000000000000000000000602082015250565b7f617474656d70746564206c6f636b20616d6f756e74206578636565647320646560008201527f706f7369747320617661696c61626c6520666f72206c6f636b696e6700000000602082015250565b7f4f776e61626c653a2063616c6c6572206973206e6f7420746865206f776e6572600082015250565b7f45524332303a207472616e736665722066726f6d20746865207a65726f20616460008201527f6472657373000000000000000000000000000000000000000000000000000000602082015250565b7f45524332303a20617070726f76652066726f6d20746865207a65726f2061646460008201527f7265737300000000000000000000000000000000000000000000000000000000602082015250565b7f45524332303a2064656372656173656420616c6c6f77616e63652062656c6f7760008201527f207a65726f000000000000000000000000000000000000000000000000000000602082015250565b612ff081612a63565b8114612ffb57600080fd5b50565b61300781612a75565b811461301257600080fd5b50565b61301e81612aa1565b811461302957600080fd5b5056fea2646970667358221220e60e0efa0e6b8a3de0a51b46ffd8013dba7ea711e720adb1e2daef36609a026a64736f6c63430008040033",
  "linkReferences": {},
  "deployedLinkReferences": {}
}